:0C0000001BC0FECFFDCFFCCFFBCFFACF22
:10000C00F9CFF8CFF7CFF6CFF5CFF4CFF3CFF2CFC0
:10001C00F1CFF0CFEFCFEECFEDCF0100000001001C
:10002C00020026000100040028000000F894EE27CE
:10003C00ECBBF1E0FBBFEBBFE5BF8DE0A2E0BB2763
:10004C00ED938A95E9F780E094E0A0E6ED930197B3
:10005C00E9F7EAE2F0E085919591009761F0A591BE
:10006C00B59105901590BF01F00105900D92019787
:10007C00E1F7FB01F0CFEFE5EDBFE4E0EEBFC0E64A
:10008C00D1E000C0EFEFE1BBE0E0E2BBE1E0E2BBBE
:10009C00E2B3AE2FE52D1FD0E2BBA8ECB0E011D03F
:1000AC0020FE02C0439401C04A94E7E0E41511F429
:1000BC00E89420F8442019F4E52D15D020F8E6CF6B
:1000CC00FFCF109639F080ED97E00197F1F7A895E6
:1000DC001197C9F70895EE230E2EEA2F19F0EE0FA3
:1000EC000A94E9F70895E894EE2309F068940895CA
:00000001FF
