:0800000025C0FECFFDCFFCCFAF
:10000800FBCFFACFF9CFF8CFF7CFF6CFF5CFF4CFB4
:10001800F3CFF2CFF1CFF0CFEFCFEECFEDCF102768
:10002800E80364000A00010000100001100001004C
:10003800563D2530322E3446000080C00200600153
:1000480042000000F894EE27ECBBF1E0FBBFEBBFE9
:10005800E5BF8DE0A2E0BB27ED938A95E9F780E044
:1000680094E0A0E6ED930197E9F7E4E4F0E08591E8
:100078009591009761F0A591B59105901590BF01F4
:10008800F00105900D920197E1F7FB01F0CFEFE544
:10009800EDBFE4E0EEBFC0E6D1E00DC0AA93E88171
:1000A800E7B983E08A95F1F7369A349BFECF349A04
:1000B800E4B1F5B1DEC06497E0E0E7BBE8BBE4BBC0
:1000C800E5BBE1BBE2BBE3BFE2BFEFBDEEBDEDBD0B
:1000D800ECBDE7BDE6BDEBBDEABDE9BDE8BDE2BDEF
:1000E800E5BDE4BDE3BDE9BFE5BFEAB9E0E8E8B9CD
:1000F800E0E0E7B9E3E8E6B9E0E0E0BFEDB9E6BF84
:10010800A0E18FD0A0E0CADF8F014AD3BDD2AEEF05
:10011800B7E280EA9BE3E6D2E88BF98B6A8B7B8BAC
:10012800FE0130D2E8E3F0E02DD2EC89FD896E893A
:100138007F8943D384E0E5D12896E0E0EA93A0E004
:1001480035D0DE015ED0E0E0EA93A8E02FD0A6E744
:1001580044D0D8CFFFCFAA93E881E07111F0C49AB8
:1001680001C0C498E881E07211F0959A01C0959891
:10017800E881E07411F0969A01C09698E881E078D9
:1001880011F0979A01C0979800D2929AFED192984E
:10019800FCD16FC0AA93A881DEDFE881E295E883ED
:1001A800A881D9DF81E18A95F1F763C0AA93E88134
:1001B800F0E0E05AFE4FE081A981AE0FEBDF5980F5
:1001C800488022960895A2E0E4D1ACE0E3DFA1E004
:1001D800E0D1E0E04E2E5E2E0895AA93A881AA30C1
:1001E80011F0571440F0E0E0EA934394A42DDEDFC9
:1001F800A881AA30F1F15394909AA881CBDF909806
:1002080038C0CBD11A93A981BA81ED91A983BA8359
:100218001E2FE03019F0A12FE0DFF5CF18812396CB
:100228000895AA93BC9A8D9A8E9A8F9A8A9A889AD8
:10023800899A9298909891987880E881E058E0930C
:100248006201E881E054E0936301A4E1B0E0E3D106
:10025800A7D1A6D1A5D1A0E27EDF81E28A95F1F7E8
:10026800A8E298DFA4E096DFA5E894DFA6E092DF95
:10027800AADF2196089591D1A9D298D1129695D244
:100288003097F1F093D195D18F01309761F002301A
:10029800E0E01E0770F0F80131978F01AA81BB8159
:1002A8001496ED93FC9382D1129686D13197AC8146
:1002B800A0837CD17AD2FF2312F078D17DD105C0FA
:1002C80075D1EFEFFFEFED93FC9387D22596089554
:1002D80064D1269777D210E0AC85BD85E0E0F0E0E8
:1002E800ED93FC93EA89FB893196EA8BFB8B319776
:1002F800E4912E2FE03009F4FEC0E12FE03031F414
:10030800253211F411E001C05DD1F4C0E130A1F44F
:10031800253211F457D1EDC012E040E000E02D3253
:1003280011F401E0E7C02B3211F44BE2E3C02032B4
:1003380011F440E2DFC002C0E23039F450E013E0CB
:10034800203311F40068D6C003C0E33009F0D2C0EE
:10035800203310F02A3308F007C0AAE05A9F502D26
:10036800E22FE0535E0FC6C0E22FE33639F431D1F5
:1003780033D12FD1A481AA9333D1BBC0E33731F451
:1003880035D136D138D1E7D01E2F08C0E03751F427
:100398002DD12ED130D1EAD01E2F086002600F7700
:1003A80030E02EC0E43611F0E93611F4046002C0E2
:1003B800E53729F4E6E2F0E023D115E00BC0E83593
:1003C80011F4086003C0E83709F093C0E0E3F0E0F7
:1003D80017D114E002FF11C009D10AD114D1AB859D
:1003E800AA232AF4EA85FB85CFD10DD14DE240300E
:1003F80011F01F5F01C00B7F03C0F8D0F9D003D103
:1004080000FD10C0151770F407FF08C002FF04C0F4
:100418000B7F242F115001C020E301C020E2D2D06D
:100428005150F0CF312F01FF15C0303091F003FF4C
:1004380005C0EE81FF812591E3D005C0AE81BF8163
:100448002D91AE83BF83BED0503009F0515031504A
:10045800ECCF46C020E3EE81FF81ABD1E887F98776
:10046800EE81FF813296CCD0E885F985AA85BB85D7
:10047800AE17BF0748F02F5FA885B985EA85FB85C9
:10048800EA1BFB0BC0D0F0CF2A3328F003FF02C0D1
:10049800295F01C0295D04FD19C0213320F4A88516
:1004A800B985119709F409C0531710F000FF01C06E
:1004B80011C020E207FF0AC020E3006102FF06C066
:1004C8000B7F4A938DD0503009F051507BD050307B
:1004D80009F051503150A885B985129708F0BACF64
:1004E80000FF07C0503029F05150E0E2EA9378D07D
:1004F800F9CF10E0F7CEAC85BD8557D16AD16496A7
:100508000895FF92F82E26975FD180D0309719F47E
:10051800EFEFFFEF1CC0DE01169632D18D0176D0C9
:100528006FD0E0E0E887E987DE011A9629D13DD14E
:1005380029D01A930A93EFE3F1E024D0DE011A964A
:10054800C7DE9F01AE81BF81E0E0EC93F90143D1A2
:100558002A96FF90089521D0A991B991EE27FF27F7
:100568006D91662311F03196FBCF089516D0AA2716
:10057800BB27E991F9910590002011F01196FBCF66
:10058800FD010895FA93EA93089582E08A95F1F7B8
:10059800089500DEA3E0B0E03EC0BA93AA930895A0
:1005A800A0E3D9DD81E28A95F1F70895AA81BB819C
:1005B80008951496FAD00895ED91FD913196FE9321
:1005C800EE9308952A93AD85BE85EF85F889099540
:1005D8000895E889F98908953497E88BF98B089587
:1005E800AD85BE85EF85F88909950895F2DFF4CFCA
:1005F800A889B989DECFEE83FF83AE81BF810895D4
:10060800EE83FF830895EA87FB870895DE011C9631
:10061800B7D0CBD00895109639F08AEF90E00197C3
:10062800F1F7A8951197C9F70895552342F4503862
:1006380011F4E0FF04C03196691F791F6BF050E890
:10064800572711F45F933CC05F3F31F0660F000CF1
:1006580057956795752F08955F9300200AF03CC061
:1006680035C050E8192E1522880F991F9527550F68
:10067800879550E8072E0522660F771F7527550FB7
:1006880067950895689401C0E89430976040704079
:10069800B1F0002426F0772312F4009479D0172EB5
:1006A8007EE1112032F07A95EE0FFF1F661F111CB4
:1006B800F9CFEF2FF62F612D5F93C1DF5F9108957A
:1006C800EE27FF27662777275F910895EFEFFFEF63
:1006D8006FE77FEF5F910895EFEFFFEF6FE77FE739
:1006E8005F9108955F93BDDF703851F3903841F3FF
:1006F80001240894791F23F41CF300203AF3ECCF6B
:100708000F921F932F933F934F93112722279927D7
:10071800689FA0018F9F302D410D591F6B9F300D91
:10072800411D591F8E9F27D0BF9F25D06A9F23D078
:10073800BE9F1DD0AF9F1BD0AE9F110D291F391F23
:10074800491F591FE32FF42F652F522F4F913F91C7
:100758002F911F910F9066232AF0550FEE1FFF1F50
:10076800661F02C073954BF260DF5F910895100D0C
:10077800211D391F02C0200D311D491F591F089521
:100788000024AF0DB01D0895F195E195F04008954E
:10079800F09560957095E195FF4F6F4F7F4F0895E5
:1007A8006F2F660F660B762F0895ED91FC911197C8
:1007B80008950590F491E02D08957A936A93FA9339
:1007C800EA9308955A934A933A932A931A930A9369
:1007D80008955D814C813B812A81198108810895A2
:00000001FF
