:080000003BC0FECFFDCFFCCF99
:10000800FBCFFACFF9CFF8CFF7CFF6CFF5CFF4CFB4
:10001800F3CFF2CFF1CFF0CFEFCFEECFEDCF102768
:10002800E80364000A00010000100001100001004C
:100038000000454E54455220504153533A0057450D
:100048004C4C434F4D45004552524F52000080C022
:1000580001002D4E414E00494E46000001000400AB
:10006800380002006901560001006D0158000000C7
:10007800F894EE27ECBBF1E0FBBFEBBFE5BF8DE0EA
:10008800A2E0BB27ED938A95E9F780E094E0A0E62B
:10009800ED930197E9F7E4E6F0E0859195910097F3
:1000A80061F0A591B59105901590BF01F0010590FB
:1000B8000D920197E1F7FB01F0CFEFE5EDBFE4E02A
:1000C800EEBFC0E6D1E000C0EFE0E1BBA19AA29A82
:1000D800E0E0E7BBE8BBE3BFE2BFEFBDEEBDEDBDCF
:1000E800ECBDE7BDE6BDEBBDEABDE9BDE8BDE2BDDF
:1000F800E5BDE4BDE3BDE9BFE5BFEAB9E0E8E8B9BD
:10010800E0E0E0BFE6B9EDB9E6BFA0E11DD146D118
:1001180059D05E2EE0E1E51509F452C0EAE05E161A
:1001280010F4A8E7E9D0E42DF0E0E05AFE4F508241
:100138004394EFE0E51519F434D1442441C0E5E0D7
:10014800E415F1F5EEE0E41511F4A0E0D5D0A091A6
:100158006401AA3020F4C4D021D127D118C0A091BD
:100168006001A23081F4A0916101A03061F4A091F6
:100178006201A23041F4A0916301A03021F4A09162
:100188006401AE3009F002C0AA9A01C0A99A0DD143
:10019800A7D004D1AA9B07C0E4E0EA93A1E093D0DA
:1001A800A6E4B0E0BED0A99B07C0E5E0EA93A1E0D1
:1001B8008AD0AFE4B0E0B5D0A0EDB7E00FD1F1D070
:1001C800A7CFFFCF1A9310E1EFEFE2BB9098F8D0DA
:1001D800849903C017E0849BFECF859903C018E07B
:1001E800859BFECF869903C019E0869BFECF879931
:1001F80003C01AE0879BFECF909A9198E1D084992A
:1002080003C014E0849BFECF859903C015E0859B4D
:10021800FECF869903C016E0869BFECF879903C060
:100228001BE0879BFECF919A9298ACE2B1E0D6D0C2
:10023800849903C011E0849BFECF859903C012E026
:10024800859BFECF869903C013E0869BFECF8799D6
:1002580003C01CE0879BFECF929A9398ACE2B1E072
:10026800BDD0849903C01FE0849BFECF859903C04D
:1002780010E0859BFECF869903C01EE0869BFECFCB
:10028800879903C01DE0879BFECF939AE12F1991B0
:100298000895AA93E8B3EF70AE2FE881E07FEA2BC8
:1002A800E8BB91D0C29A8FD0C2988DD075C0AA935E
:1002B800A881EFDFE881E295E883A881EADF85E895
:1002C8008A95F1F769C0AA93E881F0E0E759FE4FF3
:1002D800E081A981AE0FEBDF7980688022960895CE
:1002E800A2E0E5DF6DD0ACE0E2DFA1E0E0DF68D0BE
:1002F800E0E06E2E7E2E0895AA93A881AA3011F010
:10030800791448F0E0E0EA936394A62DDCDFA88135
:10031800AA3009F441C07394C09AA881C8DFC09874
:100328003BC0BA93AA931A93E981FA813196E9837B
:10033800FA833197E4911E2FE03019F0A12FDCDF0A
:10034800F3CF188123960895AA93E7B3E06FE7BB2C
:10035800BA9AB89AB99AC298C098C1989880E88110
:10036800E058E0936B01E881E054E0936C01A4E16C
:10037800B0E034D02CD02BD02AD0A0E28ADF88EC91
:1003880090E00197F1F7A8E292DFA4E090DFA5E8FA
:100398008EDFA6E08CDFA4DF21960895AAE3B0E003
:1003A800C0CFE0E0E5BB9CDFF9CF4424E0E0E09378
:1003B8006301E0936201E0936101E09360010895B5
:1003C800A3E0B0E00BC08DE08A95F1F70895A0E3B3
:1003D80060DF88EC90E00197F1F70895109639F006
:1003E80080ED97E00197F1F7A8951197C9F708955F
:00000001FF
