:020000002EC010
:10000200FECFFDCFFCCFFBCFFACFF9CFF8CFF7CFA2
:10001200F6CFF5CFF4CFF3CFF2CFF1CFF0CFEFCFD2
:10002200EECFEDCF1027E80364000A0001000010B4
:100032000001100001004C494748543A253034640D
:10004200004C414D50204F4646004C414D50204FF0
:100052004E0080C00200700154000000F894EE27A8
:10006200ECBBF1E0FBBFEBBFE5BF8DE0A2E0BB273D
:10007200ED938A95E9F780E094E0A0E6ED9301978D
:10008200E9F7E6E5F0E085919591009761F0A59199
:10009200B59105901590BF01F00105900D92019761
:1000A200E1F7FB01F0CFEFE5EDBFE4E0EEBFC0E624
:1000B200D1E00EC0AA93E881E064E7B983E08A95B3
:1000C200F1F7369A349BFECF349AE4B1F5B1E8C029
:1000D200B89AE0E0E4BBE5BBE1BBE2BBE3BFE2BF51
:1000E200EFBDEEBDEDBDECBDE7BDE6BDEBBDEABDCE
:1000F200E9BDE8BDE2BDE5BDE4BDE3BDE9BFE5BFE5
:10010200EAB9E0E8E8B9E0E4E7B9E2E8E6B9E0E054
:10011200E0BFEDB9E6BFA0E19DD059D0A0E0CADFB3
:100122002F01E0E6F1E045D2E8E3F0E042D2F2014D
:1001320066277727A2D284E0FBD128963DD2A0E0A1
:1001420039D0A0E6B1E065D0E4EFF1E04E165F06EB
:1001520038F0C09831D2A1E02DD0A3E4B0E068D04D
:10016200E4EFF1E0E415F50538F0C09A25D2A1E0FC
:1001720021D0ACE4B0E05CD0A4E621D2CECFFFCF58
:10018200AA93E2B3EF70AE2FE881E07FEA2BE2BBE5
:1001920018D2929A16D2929814D282C0AA93A881A7
:1001A200EFDFE881E295E883A881EADF81E18A95C1
:1001B200F1F776C0AA93E881F0E0E059FE4FE081C2
:1001C200A981AE0FEBDF7980688022960895A2E0C4
:1001D200E5DFA3E0F4D1ACE0E1DFA1E0DFDFA3E003
:1001E200EED1E0E06E2E7E2E0895AA93A881AA3069
:1001F20011F0791440F0E0D16394A62DDBDFA881E1
:10020200AA3009F44DC07394909AA881C7DF9098E0
:1002120047C0BA93AA931A93A981BA81ED91A9838F
:10022200BA831E2FE03019F0A12FDFDFF5CF0FC008
:10023200CCD11A93E981FA813196E983FA83319715
:10024200E4911E2FE03019F0A12FCFDFF3CF1881F8
:1002520023960895AA93E1B3E06FE1BB8A9A889A44
:10026200899A9298909891989880E881E058E093C2
:100272007201E881E054E0937301A4E1A0D1A8D116
:10028200A7D1A6D1A0E27CDF81E28A95F1F7A8E2AC
:1002920085DFA4E083DFA5E881DFA6E07FDF97DFCB
:1002A2002196089592D1F2D199D11296DED130974A
:1002B200F1F094D196D18F01309761F00230E0E0F5
:1002C2001E0770F0F80131978F01AA81BB81149645
:1002D200ED93FC9383D1129687D13197AC81A083A1
:1002E2007DD1C3D1FF2312F079D17ED105C076D161
:1002F200EFEFFFEFED93FC93D0D12596089565D1F2
:100302002697C0D110E0AC85BD85E0E0F0E0ED932A
:10031200FC93EA89FB893196EA8BFB8B3197E49156
:100322002E2FE03009F4FEC0E12FE03031F4253207
:1003320011F411E001C05ED1F4C0E130A1F4253224
:1003420011F458D1EDC012E040E000E02D3211F47A
:1003520001E0E7C02B3211F44BE2E3C0203211F48A
:1003620040E2DFC002C0E23039F450E013E0203353
:1003720011F40068D6C003C0E33009F0D2C02033C4
:1003820010F02A3308F007C0AAE05A9F502DE22F3E
:10039200E0535E0FC6C0E22FE33639F432D134D1D6
:1003A20030D1A481AA9334D1BBC0E33731F436D122
:1003B20037D139D1E7D01E2F08C0E03751F42ED102
:1003C2002FD131D1EAD01E2F086002600F7730E0C2
:1003D2002EC0E43611F0E93611F4046002C0E537AC
:1003E20029F4E6E2F0E024D115E00BC0E83511F47F
:1003F200086003C0E83709F093C0E0E3F0E018D1E9
:1004020014E002FF11C00AD10BD115D1AB85AA238A
:100412002AF4EA85FB8525D10ED14DE2403011F058
:100422001F5F01C00B7F03C0F9D0FAD004D100FDD9
:1004320010C0151770F407FF08C002FF04C00B7F3D
:10044200242F115001C020E301C020E2D3D051502B
:10045200F0CF312F01FF15C0303091F003FF05C0FE
:10046200EE81FF812591E4D005C0AE81BF812D913F
:10047200AE83BF83BFD0503009F051503150ECCF22
:1004820046C020E3EE81FF81F4D0E887F987EE8150
:10049200FF813296CDD0E885F985AA85BB85AE1756
:1004A200BF0748F02F5FA885B985EA85FB85EA1B5F
:1004B200FB0BC1D0F0CF2A3328F003FF02C0295F23
:1004C20001C0295D04FD19C0213320F4A885B98536
:1004D200119709F409C0531710F000FF01C011C0B1
:1004E20020E207FF0AC020E3006102FF06C00B7F83
:1004F2004A938ED0503009F051507CD0503009F0E0
:1005020051503150A885B985129708F0BACF00FF33
:1005120007C0503029F05150E0E2EA9379D0F9CF88
:1005220010E0F7CEAC85BD85A0D0B3D06496089517
:10053200FF92F82E2697A8D081D0309719F4EFEFCA
:10054200FFEF1CC0DE01169688D08D0177D070D0E7
:10055200E0E0E887E987DE011A967FD086D029D0CD
:100562001A930A93E3E5F1E024D0DE011A96C7DE7E
:100572009F01AE81BF81E0E0EC93F9018CD02A9615
:10058200FF90089522D0A991B991EE27FF276D918E
:10059200662311F03196FBCF089517D0AA27BB2707
:1005A200E991F9910590002011F01196FBCFFD0120
:1005B2000895FA93EA930895E0E0EA930895B0E08B
:1005C20042C082E08A95F1F70895BA93AA930895FA
:1005D200A0E3D6DD81E28A95F1F70895AA81BB8175
:1005E2000895149642D00895ED91FD913196FE93AF
:1005F200EE9308952A93AD85BE85EF85F889099516
:100602000895E889F98908953497E88BF98B08955C
:10061200AD85BE85EF85F88909950895F2DFF4CF9F
:10062200A889B989DECFEE83FF83AE81BF810895A9
:10063200EE83FF830895EA87FB870895DE011C9607
:100642000CD013D00895109639F08AEF90E00197FC
:10065200F1F7A8951197C9F708950024AF0DB01DC1
:100662000895F195E195F0400895ED91FC9111976F
:1006720008950590F491E02D08957A936A93FA9380
:10068200EA9308955A934A933A932A931A930A93B0
:1006920008955D814C813B812A81198108810895E9
:00000001FF
