:0800000023C0FECFFDCFFCCFB1
:10000800FBCFFACFF9CFF8CFF7CFF6CFF5CFF4CFB4
:10001800F3CFF2CFF1CFF0CFEFCFEECFEDCF102768
:10002800E80364000A00010000100001100001004C
:1000380025303264000080C0020066013E000000E6
:10004800F894EE27ECBBF1E0FBBFEBBFE5BF8DE01A
:10005800A2E0BB27ED938A95E9F780E094E0A0E65B
:10006800ED930197E9F7E0E4F0E085919591009729
:1000780061F0A591B59105901590BF01F00105902B
:100088000D920197E1F7FB01F0CFEFE5EDBFE4E05A
:10009800EEBFC0E6D1E00EC0AA93E881E06CE7B9F4
:1000A80083E08A95F1F7369A349BFECF349AE4B10F
:1000B800F5B1BFC0E0E0E7BBE8BBE4BBE5BBE1BB33
:1000C800E2BBE3BFE2BFEFBDEEBDEDBDECBDE7BDFA
:1000D800E6BDEBBDEABDE9BDE8BDE2BDE5BDE4BDF9
:1000E800E3BDE9BFE5BFEAB9E0E8E8B9E0ECE7B9A4
:1000F800E3E8E6B9E0E0E0BFEDB9E6BFA0E172D021
:10010800A0E0CADF2F01E0E6F1E01CD2E8E3F0E06E
:1001180019D2F2016627772778D284E0D2D12896BF
:10012800E0E0EA93A0E023D02FD0A0E6B1E04AD0E7
:10013800A4EFB1E050D2E4CFFFCFAA93E2B3EF70BF
:10014800AE2FE881E07FEA2BE2BBFFD1929AFDD186
:100158009298FBD16EC0AA93A881EFDFE881E2955F
:10016800E883A881EADF81E18A95F1F762C0AA9362
:10017800E881F0E0EA59FE4FE081A981AE0FEBDF9C
:100188007980688022960895A2E0E3D1ACE0E3DFAD
:10019800A1E0DFD1E0E06E2E7E2E0895AA93A8811B
:1001A800AA3011F0791440F0E0E0EA936394A62DA8
:1001B800DEDFA881AA30E9F17394909AA881CBDF99
:1001C800909837C0CAD11A93A981BA81ED91A983B1
:1001D800BA831E2FE03019F0A12FE0DFF5CF188188
:1001E80023960895AA93E1B3E06FE1BB8A9A889AAF
:1001F800899A9298909891989880E881E058E0932D
:100208006801E881E054E0936901A4E1B0E0E3D13A
:10021800A7D1A6D1A5D1A0E290DF81E28A95F1F716
:10022800A8E299DFA4E097DFA5E895DFA6E093DFD1
:10023800ABDF2196089591D1F1D198D11296DDD1F5
:100248003097F1F093D195D18F01309761F002305A
:10025800E0E01E0770F0F80131978F01AA81BB8199
:100268001496ED93FC9382D1129686D13197AC8186
:10027800A0837CD1C2D1FF2312F078D17DD105C0F3
:1002880075D1EFEFFFEFED93FC93CFD1259608954D
:1002980064D12697BFD110E0AC85BD85E0E0F0E0E1
:1002A800ED93FC93EA89FB893196EA8BFB8B3197B6
:1002B800E4912E2FE03009F4FEC0E12FE03031F454
:1002C800253211F411E001C05DD1F4C0E130A1F490
:1002D800253211F457D1EDC012E040E000E02D3294
:1002E80011F401E0E7C02B3211F44BE2E3C02032F5
:1002F80011F440E2DFC002C0E23039F450E013E00C
:10030800203311F40068D6C003C0E33009F0D2C02E
:10031800203310F02A3308F007C0AAE05A9F502D66
:10032800E22FE0535E0FC6C0E22FE33639F431D135
:1003380033D12FD1A481AA9333D1BBC0E33731F491
:1003480035D136D138D1E7D01E2F08C0E03751F467
:100358002DD12ED130D1EAD01E2F086002600F7740
:1003680030E02EC0E43611F0E93611F4046002C022
:10037800E53729F4E6E2F0E023D115E00BC0E835D3
:1003880011F4086003C0E83709F093C0E0E3F0E037
:1003980017D114E002FF11C009D10AD114D1AB85DD
:1003A800AA232AF4EA85FB8524D10DD14DE24030F9
:1003B80011F01F5F01C00B7F03C0F8D0F9D003D143
:1003C80000FD10C0151770F407FF08C002FF04C035
:1003D8000B7F242F115001C020E301C020E2D2D0AE
:1003E8005150F0CF312F01FF15C0303091F003FF8D
:1003F80005C0EE81FF812591E3D005C0AE81BF81A4
:100408002D91AE83BF83BED0503009F0515031508A
:10041800ECCF46C020E3EE81FF81F3D0E887F9876F
:10042800EE81FF813296CCD0E885F985AA85BB8517
:10043800AE17BF0748F02F5FA885B985EA85FB8509
:10044800EA1BFB0BC0D0F0CF2A3328F003FF02C011
:10045800295F01C0295D04FD19C0213320F4A88556
:10046800B985119709F409C0531710F000FF01C0AE
:1004780011C020E207FF0AC020E3006102FF06C0A6
:100488000B7F4A938DD0503009F051507BD05030BB
:1004980009F051503150A885B985129708F0BACFA4
:1004A80000FF07C0503029F05150E0E2EA9378D0BD
:1004B800F9CF10E0F7CEAC85BD859FD0B2D0649659
:1004C8000895FF92F82E2697A7D080D0309719F478
:1004D800EFEFFFEF1CC0DE01169687D08D0176D0B6
:1004E8006FD0E0E0E887E987DE011A967ED085D0F4
:1004F80029D01A930A93EFE1F1E024D0DE011A968D
:10050800C7DE9F01AE81BF81E0E0EC93F9018BD09B
:100518002A96FF90089521D0A991B991EE27FF2737
:100528006D91662311F03196FBCF089516D0AA2756
:10053800BB27E991F9910590002011F01196FBCFA6
:10054800FD010895FA93EA93089582E08A95F1F7F8
:10055800089501DEA3E0B0E03EC0BA93AA930895DF
:10056800A0E3EBDD81E28A95F1F70895AA81BB81CA
:100578000895149642D00895ED91FD913196FE9319
:10058800EE9308952A93AD85BE85EF85F889099580
:100598000895E889F98908953497E88BF98B0895C7
:1005A800AD85BE85EF85F88909950895F2DFF4CF0A
:1005B800A889B989DECFEE83FF83AE81BF81089514
:1005C800EE83FF830895EA87FB870895DE011C9672
:1005D8000CD013D00895109639F08AEF90E0019767
:1005E800F1F7A8951197C9F708950024AF0DB01D2C
:1005F8000895F195E195F0400895ED91FC911197DA
:1006080008950590F491E02D08957A936A93FA93EA
:10061800EA9308955A934A933A932A931A930A931A
:1006280008955D814C813B812A8119810881089553
:00000001FF
