:100000001AC0FECFFDCFFCCFFBCFFACFF9CFF8CF90
:10001000F7CFF6CFF5CFF4CFF3CFF2CFF1CFF0CFCC
:10002000EFCFEECFEDCF4952414E000080C002002D
:1000300060012C000000F894EE27ECBBF1E0FBBF60
:10004000EBBFE5BF8DE0A2E0BB27ED938A95E9F712
:1000500080E094E0A0E6ED930197E9F7EEE2F0E0AE
:1000600085919591009761F0A591B59105901590B6
:10007000BF01F00105900D920197E1F7FB01F0CF70
:10008000EFE5EDBFE4E0EEBFC0E6D1E000C0E0E0A8
:10009000E7BBE8BBE4BBE5BBE1BBE2BBE3BFE2BF60
:1000A000EFBDEEBDEDBDECBDE7BDE6BDEBBDEABD10
:1000B000E9BDE8BDE2BDE5BDE4BDE3BDE9BFE5BF27
:1000C000EAB9E0E8E8B9E0E0E0BFE6B9EDB9E6BFDB
:1000D000A0E16BD05524EDE05E1660F434D05A9266
:1000E000A0E024D0A6E2B0E04DD0ACE2B1E096D0E2
:1000F0005394F1CFEFCFFFCFAA93E8B3EF70AE2FB9
:10010000E881E07FEA2BE8BB7AD0C29A78D0C29827
:1001100076D073C0AA93A881EFDFE881E295E883E7
:10012000A881EADF85E88A95F1F767C0AA93E8819C
:10013000F0E0E05AFE4FE081A981AE0FEBDF49808D
:10014000788022960895A2E05ED0ACE0E3DFA1E0E3
:100150005AD0E0E07E2E4E2E0895AA93A881AA30B0
:1001600011F0461448F0E0E0EA937394A72DDEDF27
:10017000A881AA3009F441C04394C09AA881CADF7B
:10018000C0983BC0BA93AA931A93E981FA81319639
:10019000E983FA833197E4911E2FE03019F0A12F03
:1001A000DCDFF3CF188123960895AA93E7B3E06FBD
:1001B000E7BBBA9AB89AB99AC298C098C1986880B1
:1001C000E881E058E0936201E881E054E093630144
:1001D000A4E1B0E023D01BD01AD019D0A0E28CDF6C
:1001E00088EC90E00197F1F7A8E294DFA4E092DFB9
:1001F000A5E890DFA6E08EDFA6DF219608958DE0CA
:100200008A95F1F7089586DFA3E0B0E007C0A0E388
:1002100073DF88EC90E00197F1F70895109639F0BC
:1002200080ED97E00197F1F7A8951197C9F7089528
:00000001FF
