:100000000C942A000C9400000C9400000C94000046
:100010000C9400000C9400000C9400000C94000060
:100020000C9400000C9400000C9400000C94000050
:100030000C9400000C9400000C9400000C94000040
:100040000C9400000C9400000C9400000C94000030
:100050000C940000F894EE27ECBBF1E0F5BFE5BF8F
:100060008DE0A2E0BB27ED938A95E9F780E098E068
:10007000A0E6ED930197E9F7EFE5EDBFE8E0EEBF0D
:10008000C0E6D2E00C944400E0E0E7BBEFEFE4BB55
:10009000E1BB56B2E52DEF704E2EE52DE07FF0E08E
:1000A0000E9457007E2E45BA72BAF3CFFFCFF59566
:1000B000E795F595E795F595E795F595E795089515
:00000001FF
