:0200000028C016
:10000200FECFFDCFFCCFFBCFFACFF9CFF8CFF7CFA2
:10001200F6CFF5CFF4CFF3CFF2CFF1CFF0CFEFCFD2
:10002200EECFEDCF1027E80364000A0001000010B4
:10003200000110000100253032643A253032643A62
:1000420025303264000080C00200700148000000C8
:10005200F894EE27ECBBF1E0FBBFEBBFE5BF8DE010
:10006200A2E0BB27ED938A95E9F780E094E0A0E651
:10007200ED930197E9F7EAE4F0E085919591009715
:1000820061F0A591B59105901590BF01F001059021
:100092000D920197E1F7FB01F0CFEFE5EDBFE4E050
:1000A200EEBFC0E6D1E000C0B898B998BA98C09A3D
:1000B200C19ABA9AE0E0E4BBE5BBE1BBE2BBE3BFB5
:1000C200E2BFEFBDEEBDEDBDECBDE7BDE6BDEBBDF4
:1000D200EABDE9BDE8BDE2BDE5BDE4BDE3BDE9BF02
:1000E200E5BFEAB9E0E8E8B9E0E0E0BFE6B9EDB9BA
:1000F200E6BFA0E100D25394ECE3E51511F45524D8
:100102004394ECE3E41511F444247394E8E1E71515
:1001120009F47724C2D1E0E6F1E02ED2E8E3F0E080
:100122002BD2E72D2CD2E42D2AD2E52D28D28CE039
:1001320063D16096E4E0EA93A0E0A2D1A0E6B1E048
:10014200CAD1A8EEB3E067D2B09B5524B19903C0DF
:10015200ECE34E1608F001C04394B29903C0E8E103
:100162007E1608F001C07394C6CFFFCF0DD276D2AF
:100172000ED2129662D23097F1F009D20BD28F01D1
:10018200309761F00230E0E01E0770F0F80131971D
:100192008F01AA81BB811496ED93FC93F8D112963C
:1001A200FCD13197AC81A083F2D147D2FF2312F068
:1001B200EED1F3D105C0EBD1EFEFFFEFED93FC935E
:1001C20054D225960895E0D1269744D210E0AC850A
:1001D200BD85E0E0F0E0ED93FC93EA89FB8931967E
:1001E200EA8BFB8B3197E4912E2FE03009F4FEC0AD
:1001F200E12FE03031F4253211F411E001C0D3D106
:10020200F4C0E130A1F4253211F4CDD1EDC012E0F9
:1002120040E000E02D3211F401E0E7C02B3211F48E
:100222004BE2E3C0203211F440E2DFC002C0E23010
:1002320039F450E013E0203311F40068D6C003C053
:10024200E33009F0D2C0203310F02A3308F007C09F
:10025200AAE05A9F502DE22FE0535E0FC6C0E22F54
:10026200E33639F4A7D1A9D1A5D1A481AA93A9D102
:10027200BBC0E33731F4ABD1ACD1AED166D11E2FC6
:1002820008C0E03751F4A3D1A4D1A6D169D11E2F61
:10029200086002600F7730E02EC0E43611F0E936D4
:1002A20011F4046002C0E53729F4E6E2F0E099D1E6
:1002B20015E00BC0E83511F4086003C0E83709F017
:1002C20093C0E0E3F0E08DD114E002FF11C07FD1D2
:1002D20080D18AD1AB85AA232AF4EA85FB85A9D1EC
:1002E20083D14DE2403011F01F5F01C00B7F03C08C
:1002F2006ED16FD179D100FD10C0151770F407FFD0
:1003020008C002FF04C00B7F242F115001C020E35C
:1003120001C020E248D15150F0CF312F01FF15C06A
:10032200303091F003FF05C0EE81FF81259159D154
:1003320005C0AE81BF812D91AE83BF8334D15030D1
:1003420009F051503150ECCF46C020E3EE81FF81DD
:1003520078D1E887F987EE81FF81329642D1E8852C
:10036200F985AA85BB85AE17BF0748F02F5FA88520
:10037200B985EA85FB85EA1BFB0B36D1F0CF2A3320
:1003820028F003FF02C0295F01C0295D04FD19C0E6
:10039200213320F4A885B985119709F409C05317B0
:1003A20010F000FF01C011C020E207FF0AC020E3E5
:1003B200006102FF06C00B7F4A9303D1503009F05F
:1003C2005150F1D0503009F051503150A885B985C3
:1003D200129708F0BACF00FF07C0503029F05150F1
:1003E200E0E2EA93EED0F9CF10E0F7CEAC85BD851E
:1003F20024D137D164960895FF92F82E26972CD1F6
:10040200F6D0309719F4EFEFFFEF1CC0DE0116961D
:100412000CD18D01ECD0E5D0E0E0E887E987DE0180
:100422001A9603D10AD1A8D01A930A93E7EBF0E007
:10043200A3D0DE011A96C7DE9F01AE81BF81E0E044
:10044200EC93F90110D12A96FF900895AA93E2B392
:10045200EF70AE2FE881E07FEA2BE2BBCDD0929A1B
:10046200CBD09298C9D06FC0AA93A881EFDFE88160
:10047200E295E883A881EADF85E88A95F1F763C00F
:10048200AA93E881F0E0E059FE4FE081A981AE0F26
:10049200EBDF6980988022960895A2E0B1D0ACE0AB
:1004A200E3DFA1E0ADD0E0E09E2E6E2E0895AA9388
:1004B200A881AA3011F0681440F0E0E0EA93939426
:1004C200A92DDEDFA881AA30F1F16394909AA88168
:1004D200CBDF909838C058D01A93A981BA81ED9198
:1004E200A983BA831E2FE03019F0A12FE0DFF5CFE8
:1004F200188123960895AA93E1B3E06FE1BB8A9A2B
:10050200889A899A9298909891988880E881E05880
:10051200E0937201E881E054E0937301A4E1B0E05A
:100522007AD072D071D070D0A0E290DF88EC90E0E7
:100532000197F1F7A8E298DFA4E096DFA5E894DF3F
:10054200A6E092DFAADF219608951ED0A991B99163
:10055200EE27FF276D91662311F03196FBCF0895A8
:1005620013D0AA27BB27E991F9910590002011F039
:100572001196FBCFFD010895FA93EA930895FF27A0
:100582006627772762D00895BA93AA930895AA811D
:10059200BB810895149651D00895ED91FD91319645
:1005A200FE93EE9308952A93AD85BE85EF85F88973
:1005B20009950895E889F98908953497E88BF98BAC
:1005C2000895AD85BE85EF85F88909950895F2DF16
:1005D200F4CFA889B989DECFEE83FF83AE81BF81D4
:1005E2000895EE83FF830895EA87FB870895DE016D
:1005F2001C961BD022D008958DE08A95F1F70895BC
:1006020033DFA3E0B0E007C0A0E320DF88EC90E096
:100612000197F1F70895109639F080ED97E0019770
:10062200F1F7A8951197C9F708950024AF0DB01DF1
:100632000895F195E195F0400895ED91FC9111979F
:1006420008950590F491E02D08957A936A93FA93B0
:10065200EA9308955A934A933A932A931A930A93E0
:1006620008955D814C813B812A8119810881089519
:00000001FF
