:0E00000012C0FECFFDCFFCCFFBCFFACFF9CF61
:10000E00F8CFF7CFF6CFF5CFF4CFF3CFF2CFF1CFC6
:10001E00F0CFEFCFEECFEDCFF894EE27ECBBF1E0C3
:10002E00FBBFEBBFE5BF8DE0A2E0BB27ED938A954A
:10003E00E9F780E094E0A0E6ED930197E9F7EFE5AC
:10004E00EDBFE4E0EEBFC0E6D1E000C0EFEFE1BBF4
:10005E00E1E010D0E2E00ED0E4E00CD0E8E00AD00F
:10006E00E0E108D0E0E206D0E0E404D0E0E802D01F
:10007E00EFCFFFCFE2BBA4EFB1E000C0109639F096
:10008E0080ED97E00197F1F7A8951197C9F70895BC
:00000001FF
