:0C0000000C942A000C9400000C940000EA
:10000C000C9400000C9400000C9400000C94000064
:10001C000C9400000C9400000C9400000C94000054
:10002C000C9400000C9400000C9400000C94000044
:10003C000C9400000C9400000C9400000C94000034
:10004C000C9400000C940000F894EE27ECBBF1E04B
:10005C00F5BFE5BF8DE0A2E0BB27ED938A95E9F7EC
:10006C0080E098E0A0E6ED930197E9F7EFE5EDBFAE
:10007C00E8E0EEBFC0E6D2E00C944400E0E0E1BB67
:10008C00EFEFE1BB56B2E52DF0E0A1E0B0E00E944D
:10009C005C004E2E442011F4E2E001C0E1E0E2BB32
:1000AC00F1CFFFCFF195E195F0400895E894F7FF7B
:1000BC0002C0F8DF6894EA23FB230EF4F3DF089503
:00000001FF
