:0600000017C0FECFFDCF8A
:10000600FCCFFBCFFACFF9CFF8CFF7CFF6CFF5CFAE
:10001600F4CFF3CFF2CFF1CFF0CFEFCFEECFEDCFDE
:1000260000000100050026000000F894EE27ECBB56
:10003600F1E0FBBFEBBFE5BF8DE0A2E0BB27ED9390
:100046008A95E9F780E094E0A0E6ED930197E9F759
:10005600E8E2F0E085919591009761F0A591B59160
:1000660005901590BF01F00105900D920197E1F7FB
:10007600FB01F0CFEFE5EDBFE4E0EEBFC0E6D1E077
:1000860000C0EFEFE4BBE1BBE7E05E2EE0E05E160A
:1000960018F01AD05A94FACFE6E05E2EE0E05E162B
:1000A60018F01BD05A94FACF5524E7E05E1618F4E0
:1000B60014D05394FACF5524E8E05E1618F404D011
:1000C6005394FACFE1CFFFCF12B2E52DA1E018D0BD
:1000D600E125E2BBA4E6B0E009C015B2E52DA1E03A
:1000E6000FD0E125E5BBA4E6B0E000C0109639F0DC
:1000F60080ED97E00197F1F7A8951197C9F7089554
:10010600EE230E2EEA2F19F0EE0F0A94E9F7089562
:00000001FF
