:100000000C942A000C9400000C9400000C94000046
:100010000C9400000C9400000C9400000C94000060
:100020000C9400000C9400000C9400000C94000050
:100030000C9400000C9400000C9400000C94000040
:100040000C9400000C9400000C9400000C94000030
:100050000C940000F894EE27ECBBF1E0FBBFEBBF83
:10006000E5BF8DE0A2E0BB27ED938A95E9F780E03C
:1000700098E0A0E6ED930197E9F7EFE5EDBFE8E042
:10008000EEBFC0E6D2E00C9445000ED014D05A92D8
:10009000A42D18D07E2E5A92A42D1AD06E2E7A92AC
:1000A000A62D1FD0F3CFFFCFE0E0EABBE7BBEFEF19
:1000B000E4BBE1BB0895E9B3E7705E2EE6B3E770F9
:1000C0004E2E0895AA931A93E981AA81EA0F05C0DA
:1000D000AA931A93A981EA81EA1B1E2F18812396FD
:1000E0000895AA93E981E5BBE881E2BB22960895D1
:00000001FF
