:0C0000003CC0FECFFDCFFCCFFBCFFACF01
:10000C00F9CFF8CFF7CFF6CFF5CFF4CFF3CFF2CFC0
:10001C00F1CFF0CFEFCFEECFEDCF1027E803640098
:10002C000A00010000100001100001000000454E04
:10003C0054455220504153533A0025640057454CC7
:10004C004C434F4D45004552524F520080C0010069
:10005C002D4E414E00494E46000001000400380070
:10006C0002006D015800010071015A000000F89463
:10007C00EE27ECBBF1E0FBBFEBBFE5BF8DE0A2E0F0
:10008C00BB27ED938A95E9F780E094E0A0E6ED9329
:10009C000197E9F7E6E6F0E085919591009761F01C
:1000AC00A591B59105901590BF01F00105900D92A9
:1000BC000197E1F7FB01F0CFEFE5EDBFE4E0EEBF18
:1000CC00C0E6D1E000C0EFE0E1BBA19AA29AE0E06B
:1000DC00E7BBE8BBE3BFE2BFEFBDEEBDEDBDECBDE2
:1000EC00E7BDE6BDEBBDEABDE9BDE8BDE2BDE5BDE2
:1000FC00E4BDE3BDE9BFE5BFEAB9E0E8E8B9E0E09B
:10010C00E0BFE6B9EDB9E6BFA0E1A9D2E9D268D06B
:10011C005E2EE0E1E51509F461C0EAE05E1688F4B4
:10012C00E9E6F1E0E0D2E6E4F0E0DDD2E52DFF27F0
:10013C00662777274AD384E000D22896A9E6B1E057
:10014C006ED2E42DF0E0E05AFE4F50824394EFE083
:10015C00E51519F4CBD2442441C0E5E0E415F1F5E2
:10016C00EEE0E41511F4A0E045D2A0916401AA30B0
:10017C0020F434D2B5D2BED218C0A0916001A23006
:10018C0081F4A0916101A03061F4A0916201A230D0
:10019C0041F4A0916301A03021F4A0916401AE3030
:1001AC0009F002C0AA9A01C0A99AA4D217D298D277
:1001BC00AA9B07C0E4E0EA93A1E003D2A9E4B0E073
:1001CC003CD2A99B07C0E5E0EA93A1E0FAD1A2E5F5
:1001DC00B0E033D2A0EDB7E0DED288D298CFFFCF1B
:1001EC001A9310E1EFEFE2BB90988FD2849903C081
:1001FC0017E0849BFECF859903C018E0859BFECF4A
:10020C00869903C019E0869BFECF879903C01AE03C
:10021C00879BFECF909A919878D2849903C014E072
:10022C00849BFECF859903C015E0859BFECF8699F4
:10023C0003C016E0869BFECF879903C01BE0879B0B
:10024C00FECF919A9298ACE2B1E0A5D2849903C00A
:10025C0011E0849BFECF859903C012E0859BFECFF5
:10026C00869903C013E0869BFECF879903C01CE0E0
:10027C00879BFECF929A9398ACE2B1E08CD2849992
:10028C0003C01FE0849BFECF859903C010E0859BC3
:10029C00FECF869903C01EE0869BFECF879903C0D4
:1002AC001DE0879BFECF939AE12F1991089530D2D0
:1002BC0095D231D2129681D23097F1F02CD22ED227
:1002CC008F01309761F00230E0E01E0770F0F8010A
:1002DC0031978F01AA81BB811496ED93FC931BD2AD
:1002EC0012961FD23197AC81A08315D266D2FF2310
:1002FC0012F011D216D205C00ED2EFEFFFEFED9334
:10030C00FC9373D22596089503D2269763D210E0FE
:10031C00AC85BD85E0E0F0E0ED93FC93EA89FB89C8
:10032C003196EA8BFB8B3197E4912E2FE03009F458
:10033C00FEC0E12FE03031F4253211F411E001C0A0
:10034C00F6D1F4C0E130A1F4253211F4F0D1EDC0B6
:10035C0012E040E000E02D3211F401E0E7C02B3256
:10036C0011F44BE2E3C0203211F440E2DFC002C0D2
:10037C00E23039F450E013E0203311F40068D6C0B9
:10038C0003C0E33009F0D2C0203310F02A3308F058
:10039C0007C0AAE05A9F502DE22FE0535E0FC6C053
:1003AC00E22FE33639F4CAD1CCD1C8D1A481AA93B7
:1003BC00CCD1BBC0E33731F4CED1CFD1D1D179D1AF
:1003CC001E2F08C0E03751F4C6D1C7D1C9D17CD19A
:1003DC001E2F086002600F7730E02EC0E43611F05B
:1003EC00E93611F4046002C0E53729F4E6E2F0E0E6
:1003FC00BCD115E00BC0E83511F4086003C0E83738
:10040C0009F093C0E0E3F0E0B0D114E002FF11C0BA
:10041C00A2D1A3D1ADD1AB85AA232AF4EA85FB8561
:10042C00C8D1A6D14DE2403011F01F5F01C00B7F47
:10043C0003C091D192D19CD100FD10C0151770F45E
:10044C0007FF08C002FF04C00B7F242F115001C00E
:10045C0020E301C020E26BD15150F0CF312F01FFCE
:10046C0015C0303091F003FF05C0EE81FF8125915E
:10047C007CD105C0AE81BF812D91AE83BF8357D196
:10048C00503009F051503150ECCF46C020E3EE8192
:10049C00FF8197D1E887F987EE81FF81329665D18C
:1004AC00E885F985AA85BB85AE17BF0748F02F5F95
:1004BC00A885B985EA85FB85EA1BFB0B59D1F0CFE2
:1004CC002A3328F003FF02C0295F01C0295D04FD17
:1004DC0019C0213320F4A885B985119709F409C0F6
:1004EC00531710F000FF01C011C020E207FF0AC033
:1004FC0020E3006102FF06C00B7F4A9326D15030E7
:10050C0009F0515014D1503009F051503150A88598
:10051C00B985129708F0BACF00FF07C0503029F008
:10052C005150E0E2EA9311D1F9CF10E0F7CEAC854F
:10053C00BD8543D156D164960895FF92F82E269727
:10054C004BD119D1309719F4EFEFFFEF1CC0DE013E
:10055C0016962BD18D010FD108D1E0E0E887E98701
:10056C00DE011A9622D129D1BED01A930A93EDE559
:10057C00F1E0B9D0DE011A96C7DE9F01AE81BF81D2
:10058C00E0E0EC93F9012FD12A96FF900895AA93FD
:10059C00E8B3EF70AE2FE881E07FEA2BE8BBF0D038
:1005AC00C29AEED0C298ECD082C0AA93A881EFDF99
:1005BC00E881E295E883A881EADF85E88A95F1F77E
:1005CC0076C0AA93E881F0E0E359FE4FE081A9815F
:1005DC00AE0FEBDF7980688022960895A2E0E5DF0C
:1005EC0094D0ACE0E2DFA1E0E0DF8FD0E0E06E2E53
:1005FC007E2E0895AA93A881AA3011F0791448F0A0
:10060C00E0E0EA936394A62DDCDFA881AA3009F41C
:10061C004EC07394C09AA881C8DFC09848C078D0E7
:10062C001A93A981BA81ED91A983BA831E2FE03068
:10063C0019F0A12FDFDFF5CF0FC06AD01A93E98133
:10064C00FA813196E983FA833197E4911E2FE030D9
:10065C0019F0A12FCFDFF3CF188123960895AA9319
:10066C00E7B3E06FE7BBBA9AB89AB99AC298C09848
:10067C00C1989880E881E058E0936F01E881E054DC
:10068C00E0937001A4E1B0E086D07ED07DD07CD028
:10069C00A0E27DDF88EC90E00197F1F7A8E285DF1E
:1006AC00A4E083DFA5E881DFA6E07FDF97DF21965A
:1006BC0008952ED0A991B991EE27FF276D9166234D
:1006CC0011F03196FBCF089523D0AA27BB27E991CF
:1006DC00F9910590002011F01196FBCFFD010895C2
:1006EC00AAE3B0E0AACFFA93EA930895E0E0E5BB61
:1006FC0075DFF6CF4424E0E0E0936301E093620100
:10070C00E0936101E09360010895A3E0B0E043C081
:10071C00BA93AA930895AA81BB81089514964DD0DB
:10072C000895ED91FD913196FE93EE9308952A93E1
:10073C00AD85BE85EF85F88909950895E889F98915
:10074C0008953497E88BF98B0895AD85BE85EF85B8
:10075C00F88909950895F2DFF4CFA889B989DECF1D
:10076C00EE83FF83AE81BF810895EE83FF830895EE
:10077C00EA87FB870895DE011C9617D01ED00895DA
:10078C008DE08A95F1F70895A0E301DF88EC90E005
:10079C000197F1F70895109639F080ED97E00197E5
:1007AC00F1F7A8951197C9F708950024AF0DB01D66
:1007BC000895F195E195F0400895ED91FC91119714
:1007CC0008950590F491E02D08957A936A93FA9325
:1007DC00EA9308955A934A933A932A931A930A9355
:1007EC0008955D814C813B812A811981088108958E
:00000001FF
