:0E00000022C0FECFFDCFFCCFFBCFFACFF9CF51
:10000E00F8CFF7CFF6CFF5CFF4CFF3CFF2CFF1CFC6
:10001E00F0CFEFCFEECFEDCF1027E80364000A004C
:10002E00010000100001100001002564000080C0D6
:10003E00020064013C000000F894EE27ECBBF1E0F6
:10004E00FBBFEBBFE5BF8DE0A2E0BB27ED938A952A
:10005E00E9F780E094E0A0E6ED930197E9F7EEE38F
:10006E00F0E085919591009761F0A591B59105907D
:10007E001590BF01F00105900D920197E1F7FB017C
:10008E00F0CFEFE5EDBFE4E0EEBFC0E6D1E000C09B
:10009E00EFE0E1BBE0E0E7BBE8BBE4BBE5BBE3BF01
:1000AE00E2BFEFBDEEBDEDBDECBDE7BDE6BDEBBD08
:1000BE00EABDE9BDE8BDE2BDE5BDE4BDE3BDE9BF16
:1000CE00E5BFEAB9E0E8E8B9E0E0E0BFE6B9EDB9CE
:1000DE00E6BFA0E166D237D05E2EE0E1E51589F1EC
:1000EE00EAE05E1688F4E0E6F1E09CD2E8E3F0E0A8
:1000FE0099D2E52DFF2766277727F7D284E0D0D156
:10010E002896A0E6B1E03DD2EAE0E51511F4AFE2A3
:10011E0024D2EBE0E51511F4AAE21FD2ECE0E515CE
:10012E0011F4ADE21AD2EDE0E51511F4ABE215D201
:10013E00EEE0E51511F4ADE310D2EFE0E51509F4AC
:10014E0000D2C9CFFFCF1A9310E1EFEFE2BB909828
:10015E006CD2849903C017E0849BFECF859903C0AF
:10016E0018E0859BFECF869903C019E0869BFECFD3
:10017E00879903C01AE0879BFECF909A919855D22B
:10018E00849903C014E0849BFECF859903C015E0CB
:10019E00859BFECF869903C016E0869BFECF87997E
:1001AE0003C01BE0879BFECF919A9298ACE2B1E020
:1001BE0082D2849903C011E0849BFECF859903C03F
:1001CE0012E0859BFECF869903C013E0869BFECF7F
:1001DE00879903C01CE0879BFECF929A9398ACE25E
:1001EE00B1E069D2849903C01FE0849BFECF85994C
:1001FE0003C010E0859BFECF869903C01EE0869B50
:10020E00FECF879903C01DE0879BFECF939AE12F07
:10021E00199108950DD272D20ED212965ED23097E7
:10022E00F1F009D20BD28F01309761F00230E0E08D
:10023E001E0770F0F80131978F01AA81BB811496C9
:10024E00ED93FC93F8D11296FCD13197AC81A0833B
:10025E00F2D143D2FF2312F0EED1F3D105C0EBD190
:10026E00EFEFFFEFED93FC9350D225960895E0D17A
:10027E00269740D210E0AC85BD85E0E0F0E0ED932E
:10028E00FC93EA89FB893196EA8BFB8B3197E491DB
:10029E002E2FE03009F4FEC0E12FE03031F425328C
:1002AE0011F411E001C0D3D1F4C0E130A1F4253234
:1002BE0011F4CDD1EDC012E040E000E02D3211F48A
:1002CE0001E0E7C02B3211F44BE2E3C0203211F40F
:1002DE0040E2DFC002C0E23039F450E013E02033D8
:1002EE0011F40068D6C003C0E33009F0D2C0203349
:1002FE0010F02A3308F007C0AAE05A9F502DE22FC3
:10030E00E0535E0FC6C0E22FE33639F4A7D1A9D170
:10031E00A5D1A481AA93A9D1BBC0E33731F4ABD147
:10032E00ACD1AED168D11E2F08C0E03751F4A3D1A5
:10033E00A4D1A6D16BD11E2F086002600F7730E0DA
:10034E002EC0E43611F0E93611F4046002C0E53730
:10035E0029F4E6E2F0E099D115E00BC0E83511F48E
:10036E00086003C0E83709F093C0E0E3F0E08DD1F8
:10037E0014E002FF11C07FD180D18AD1AB85AA23B0
:10038E002AF4EA85FB85A5D183D14DE2403011F0E8
:10039E001F5F01C00B7F03C06ED16FD179D100FDFD
:1003AE0010C0151770F407FF08C002FF04C00B7FC2
:1003BE00242F115001C020E301C020E248D151503A
:1003CE00F0CF312F01FF15C0303091F003FF05C083
:1003DE00EE81FF81259159D105C0AE81BF812D914E
:1003EE00AE83BF8334D1503009F051503150ECCF31
:1003FE0046C020E3EE81FF8174D1E887F987EE8154
:10040E00FF81329642D1E885F985AA85BB85AE1764
:10041E00BF0748F02F5FA885B985EA85FB85EA1BE3
:10042E00FB0B36D1F0CF2A3328F003FF02C0295F31
:10043E0001C0295D04FD19C0213320F4A885B985BA
:10044E00119709F409C0531710F000FF01C011C035
:10045E0020E207FF0AC020E3006102FF06C00B7F07
:10046E004A9303D1503009F05150F1D0503009F079
:10047E0051503150A885B985129708F0BACF00FFB8
:10048E0007C0503029F05150E0E2EA93EED0F9CF98
:10049E0010E0F7CEAC85BD8520D133D1649608959A
:1004AE00FF92F82E269728D1F6D0309719F4EFEF59
:1004BE00FFEF1CC0DE01169608D18D01ECD0E5D001
:1004CE00E0E0E887E987DE011A96FFD006D1AAD0D0
:1004DE001A930A93E1E1F1E0A5D0DE011A96C7DE88
:1004EE009F01AE81BF81E0E0EC93F9010CD12A9619
:1004FE00FF900895AA93E8B3EF70AE2FE881E07FE6
:10050E00EA2BE8BBCDD0C29ACBD0C298C9D071C06D
:10051E00AA93A881EFDFE881E295E883A881EADF5C
:10052E0085E88A95F1F765C0AA93E881F0E0EC5969
:10053E00FE4FE081A981AE0FEBDF498078802296D5
:10054E000895A2E0E5DF71D0ACE0E2DFA1E0E0DFEC
:10055E006CD0E0E07E2E4E2E0895AA93A881AA308C
:10056E0011F0461440F0E0E0EA937394A72DDCDF1F
:10057E00A881AA30F1F14394C09AA881C9DFC0982E
:10058E0038C056D01A93A981BA81ED91A983BA8346
:10059E001E2FE03019F0A12FE0DFF5CF1881239642
:1005AE000895AA93E7B3E06FE7BBBA9AB89AB99ADF
:1005BE00C298C098C1986880E881E058E0936601BF
:1005CE00E881E054E0936701A4E1B0E074D06CD010
:1005DE006BD06AD0A0E28EDF88EC90E00197F1F745
:1005EE00A8E296DFA4E094DFA5E892DFA6E090DF14
:1005FE00A8DF219608951CD0A991B991EE27FF2767
:10060E006D91662311F03196FBCF089511D0AA2774
:10061E00BB27E991F9910590002011F01196FBCFBF
:10062E00FD010895FA93EA930895A3E0B0E043C064
:10063E00BA93AA930895AA81BB81089514964DD0BA
:10064E000895ED91FD913196FE93EE9308952A93C0
:10065E00AD85BE85EF85F88909950895E889F989F4
:10066E0008953497E88BF98B0895AD85BE85EF8597
:10067E00F88909950895F2DFF4CFA889B989DECFFC
:10068E00EE83FF83AE81BF810895EE83FF830895CD
:10069E00EA87FB870895DE011C9617D01ED00895B9
:1006AE008DE08A95F1F70895A0E324DF88EC90E0C1
:1006BE000197F1F70895109639F080ED97E00197C4
:1006CE00F1F7A8951197C9F708950024AF0DB01D45
:1006DE000895F195E195F0400895ED91FC911197F3
:1006EE0008950590F491E02D08957A936A93FA9304
:1006FE00EA9308955A934A933A932A931A930A9334
:10070E0008955D814C813B812A811981088108956C
:00000001FF
