:1000000017C0FECFFDCFFCCFFBCFFACFF9CFF8CF93
:10001000F7CFF6CFF5CFF4CFF3CFF2CFF1CFF0CFCC
:10002000EFCFEECFEDCF000001000500260000006D
:10003000F894EE27ECBBF1E0FBBFEBBFE5BF8DE032
:10004000A2E0BB27ED938A95E9F780E094E0A0E673
:10005000ED930197E9F7E8E2F0E08591959100973B
:1000600061F0A591B59105901590BF01F001059043
:100070000D920197E1F7FB01F0CFEFE5EDBFE4E072
:10008000EEBFC0E6D1E000C0EFEFE7BB5524E5E0EE
:100090005E1630F4EFEF06D0E0E004D05394F7CFD3
:1000A000FFCFFFCFE8BBA4EFB1E000C0109639F05E
:1000B00080ED97E00197F1F7A8951197C9F708959A
:00000001FF
